:100000000C942A000C94A2000C943C000C943C002C
:100010000C943C000C943C000C943C000C943C0070
:100020000C943C000C943C000C943C000C943C0060
:100030000C943C000C943C000C943C000C943C0050
:100040000C943C000C943C000C943C000C943C0040
:100050000C943C0011241FBECFE5D8E0DEBFCDBF1D
:1000600020E0A0E6B0E001C01D92A136B207E1F7A2
:100070000E94FA010C9438060C94000040E062E003
:1000800084E00E94FF0160E081E00E94660161E07F
:1000900081E00E94660162E081E00E94660160E00A
:1000A00082E00E94660161E082E00E94660162E0F7
:1000B00082E00E9466010E94CC030E94C30308955F
:1000C00028E833E140E052E061E081E00E947601FF
:1000D00080916000811133C041E060E081E00E94C6
:1000E0006C0188E893E10E94CF0340E060E081E08A
:1000F0000E946C018091600081111EC028E833E1EC
:1001000040E052E061E081E00E9476018091600071
:1001100081110FC041E062E081E00E946C0188E83B
:1001200093E10E94CF0340E062E081E00E946C0115
:100130000895109260000895109260000895109242
:10014000600008951F920F920FB60F9211242F9303
:100150003F934F935F936F937F938F939F93AF934F
:10016000BF93EF93FF93CF93DF931F92CDB7DEB78B
:10017000AE014F5F5F4F60E081E00E941303898111
:100180008130D9F541E060E00E946C0141E062E01D
:1001900082E00E946C0188E893E10E94CF0340E076
:1001A00060E081E00E946C0168E873E180E092E029
:1001B0000E94B20140E062E082E00E946C0141E0F6
:1001C00062E081E00E946C0141E060E082E00E9418
:1001D0006C0188E893E10E94CF0340E062E081E097
:1001E0000E946C0140E060E082E00E946C0181E0CE
:1001F0008093600085E083BF55C040E061E081E00E
:100200000E946C0140E062E081E00E946C0141E0EC
:1002100060E082E00E946C0168E873E180E092E0B7
:100220000E94B20140E060E082E00E946C0141E087
:1002300062E082E00E946C0141E060E081E00E94A7
:100240006C0188E893E10E94CF0340E060E081E028
:100250000E946C0168E873E180E092E00E94B201C4
:1002600040E062E082E00E946C0141E062E081E0F7
:100270000E946C0141E060E082E00E946C0188E82D
:1002800093E10E94CF0340E062E081E00E946C01B4
:1002900040E060E082E00E946C0181E080936000B9
:1002A00085E083BF0F90DF91CF91FF91EF91BF91D8
:1002B000AF919F918F917F916F915F914F913F91FE
:1002C0002F910F900FBE0F901F90189541E00E9444
:1002D000FF01811182E008950E948902811181E06D
:1002E00008950E948203811183E00895CF92DF92E6
:1002F000EF92FF920F931F93CF93DF93F82EE62E8A
:100300008A016901C0E0D0E080E090E013C06E2D6A
:100310008F2D0E947101811119C0C8010E94CF0365
:10032000811116C021960C9FC0010D9F900D1C9F3E
:10033000900D11248C159D0554F340E06E2D8F2DEA
:100340000E946C01882329F084E003C084E001C08E
:1003500084E0DF91CF911F910F91FF90EF90DF909C
:10036000CF900895EF92FF920F931F93CF93DF9357
:100370008C017B01C0E0D0E080E090E019C061E03A
:1003800081E00E947101811125C061E082E00E943C
:100390007101811121C0C8010E94CF0381111EC0CB
:1003A00021960C9FC0010D9F900D1C9F900D112454
:1003B0008E159F0524F340E061E081E00E946C010E
:1003C00081110EC040E061E082E00E946C01811169
:1003D00009C009C084E007C084E005C084E003C010
:1003E00084E001C084E0DF91CF911F910F91FF90D5
:1003F000EF9008950E943E000E946000FDCF68309B
:1004000008F07FC041113FC08230B1F018F4813054
:1004100031F079C08330E9F0843041F174C02AB3FF
:1004200081E090E002C0880F991F6A95E2F78095FD
:1004300082238ABB80E0089527B381E090E002C068
:10044000880F991F6A95E2F78095822387BB80E029
:10045000089524B381E090E002C0880F991F6A9547
:10046000E2F78095822384BB80E0089521B381E088
:1004700090E002C0880F991F6A95E2F78095822369
:1004800081BB80E00895413009F03FC08230A9F07F
:1004900018F4813031F03BC08330D9F0843029F139
:1004A00036C02AB381E090E002C0880F991F6A9598
:1004B000E2F7822B8ABB80E0089527B381E090E0C9
:1004C00002C0880F991F6A95E2F7822B87BB80E0F4
:1004D000089524B381E090E002C0880F991F6A95C7
:1004E000E2F7822B84BB80E0089521B381E090E0A5
:1004F00002C0880F991F6A95E2F7822B81BB80E0CA
:10050000089583E0089584E0089582E0089584E0EA
:100510000895683008F07FC041113FC08230B1F0CB
:1005200018F4813031F079C08330E9F0843041F142
:1005300074C02BB381E090E002C0880F991F6A95C8
:10054000E2F7809582238BBB80E0089528B381E099
:1005500090E002C0880F991F6A95E2F78095822388
:1005600088BB80E0089525B381E090E002C0880F49
:10057000991F6A95E2F78095822385BB80E00895F4
:1005800022B381E090E002C0880F991F6A95E2F7DC
:100590008095822382BB80E00895413009F03FC0FE
:1005A0008230A9F018F4813031F03BC08330D9F0AB
:1005B000843029F136C02BB381E090E002C0880F6F
:1005C000991F6A95E2F7822B8BBB80E0089528B3D0
:1005D00081E090E002C0880F991F6A95E2F7822BB4
:1005E00088BB80E0089525B381E090E002C0880FC9
:1005F000991F6A95E2F7822B85BB80E0089522B3AC
:1006000081E090E002C0880F991F6A95E2F7822B83
:1006100082BB80E0089583E0089584E0089581E03E
:10062000089584E00895683008F068C0823009F1C8
:1006300018F4813039F064C0833091F1843009F4CA
:1006400046C05EC079B381E090E09C01062E02C0F6
:10065000220F331F0A94E2F7872F90E0822393231F
:1006600002C0959587956A95E2F7FA01808380E04C
:10067000089576B381E090E09C01062E02C0220F1F
:10068000331F0A94E2F7872F90E08223932302C05E
:10069000959587956A95E2F7FA01808380E0089541
:1006A00073B381E090E09C01062E02C0220F331F3D
:1006B0000A94E2F7872F90E08223932302C0959556
:1006C00087956A95E2F7FA01808380E0089570B318
:1006D00081E090E09C01062E02C0220F331F0A9495
:1006E000E2F7872F90E08223932302C095958795A8
:1006F0006A95E2F7FA01808380E0089583E0089527
:1007000084E008956830D8F58230A9F018F481307B
:1007100031F037C08330D9F0843029F132C02BB3A7
:1007200081E090E002C0880F991F6A95E2F7822766
:100730008BBB80E0089528B381E090E002C0880F71
:10074000991F6A95E2F7822788BB80E0089525B358
:1007500081E090E002C0880F991F6A95E2F7822736
:1007600085BB80E0089522B381E090E002C0880F4D
:10077000991F6A95E2F7822782BB80E0089583E0A3
:10078000089584E008958FB780688FBF83E085BFA8
:100790008BB780648BBF089513BE12BE08958F92ED
:1007A0009F92AF92BF92CF92DF92EF92FF92CF9340
:1007B000DF93BC01990F880B990B0E946B054B01CD
:1007C0005C012FE632E143E853E40E94C1040E9439
:1007D000AA040E9433056B017C01EB012FE632E194
:1007E00043E85FE3C501B4010E94C1044B015C0111
:1007F000B601DD0C880B990B0E946B059B01AC01C7
:10080000C501B4010E94C1049B01AC0160E070E02D
:1008100080E893E40E943D040E94330512BE85E007
:1008200083BF20E030E018C062BF04C08091600048
:10083000813019F008B600FEF9CF08B600FE06C0F8
:1008400088B7816088BF2F5F3F4F06C080916000EE
:10085000813029F081E006C02C173D072CF313BE30
:1008600012BE80E0DF91CF91FF90EF90DF90CF90AC
:10087000BF90AF909F908F9008955058BB27AA27A4
:100880000E9455040C94E6050E94D80538F00E9499
:10089000DF0520F039F49F3F19F426F40C94D505B8
:1008A0000EF4E095E7FB0C94A605E92F0E94F705EE
:1008B00058F3BA17620773078407950720F079F495
:1008C000A6F50C9431060EF4E0950B2EBA2FA02D50
:1008D0000B01B90190010C01CA01A0011124FF27ED
:1008E000591B99F0593F50F4503E68F11A16F040E8
:1008F000A22F232F342F4427585FF3CF46953795E7
:100900002795A795F0405395C9F77EF41F16BA0BAB
:10091000620B730B840BBAF09150A1F0FF0FBB1F59
:10092000661F771F881FC2F70EC0BA0F621F731FA2
:10093000841F48F4879577956795B795F7959E3FFF
:1009400008F0B0CF9395880F08F09927EE0F979590
:10095000879508950E94190690F09F3748F49111E9
:1009600016F40C94320660E070E080E89FE308958E
:1009700026F01B16611D711D811D0C94AC050C9495
:10098000C7050E94D5040C94E6050E94DF0558F0C7
:100990000E94D80540F029F45F3F29F00C94A60589
:1009A00051110C9432060C94D5050E94F70568F39A
:1009B0009923B1F3552391F3951B550BBB27AA2718
:1009C00062177307840738F09F5F5F4F220F331F52
:1009D000441FAA1FA9F335D00E2E3AF0E0E832D01A
:1009E00091505040E695001CCAF72BD0FE2F29D01D
:1009F000660F771F881FBB1F261737074807AB07EF
:100A0000B0E809F0BB0B802DBF01FF2793585F4F63
:100A10003AF09E3F510578F00C94A6050C943206EE
:100A20005F3FE4F3983ED4F3869577956795B79545
:100A3000F7959F5FC9F7880F911D9695879597F950
:100A40000895E1E0660F771F881FBB1F62177307C9
:100A50008407BA0720F0621B730B840BBA0BEE1FDE
:100A600088F7E09508950E943A056894B1110C94B6
:100A7000320608950E94FF0588F09F5798F0B92F1D
:100A80009927B751B0F0E1F0660F771F881F991FC3
:100A90001AF0BA95C9F714C0B13091F00E9431062E
:100AA000B1E008950C943106672F782F8827B85F3E
:100AB00039F0B93FCCF3869577956795B395D9F71B
:100AC0003EF490958095709561957F4F8F4F9F4F25
:100AD0000895E89409C097FB3EF490958095709531
:100AE00061957F4F8F4F9F4F9923A9F0F92F96E97A
:100AF000BB279395F695879577956795B795F111EF
:100B0000F8CFFAF4BB0F11F460FF1BC06F5F7F4F8B
:100B10008F4F9F4F16C0882311F096E911C077239D
:100B200021F09EE8872F762F05C0662371F096E8A6
:100B3000862F70E060E02AF09A95660F771F881F75
:100B4000DAF7880F9695879597F9089597F99F6733
:100B500080E870E060E00895882371F4772321F045
:100B60009850872B762F07C0662311F499270DC064
:100B70009051862B70E060E02AF09A95660F771FFF
:100B8000881FDAF7880F9695879597F908959F3F04
:100B900031F0915020F4879577956795B795880F38
:100BA000911D9695879597F908959FEF80EC08958C
:100BB00000240A941616170618060906089500243C
:100BC0000A9412161306140605060895092E0394B6
:100BD000000C11F4882352F0BB0F40F4BF2B11F42A
:100BE00060FF04C06F5F7F4F8F4F9F4F089557FD89
:100BF0009058440F551F59F05F3F71F04795880F8B
:100C000097FB991F61F09F3F79F087950895121621
:100C100013061406551FF2CF4695F1DF08C01616CD
:100C200017061806991FF1CF86957105610508947E
:100C300008950E94FF05A0F0BEE7B91788F4BB270E
:100C40009F3860F41616B11D672F782F8827985F9C
:100C5000F7CF869577956795B11D93959639C8F32B
:100C60000895E894BB2766277727CB0197F9089565
:040C7000F894FFCF26
:00000001FF
